{
  "address": "0xe7f1725E7734CE288F8367e1Bb143E90bb3F0512",
  "abi": [
    {
      "inputs": [
        {
          "internalType": "address",
          "name": "priceFeedAddress",
          "type": "address"
        }
      ],
      "stateMutability": "nonpayable",
      "type": "constructor"
    },
    {
      "inputs": [],
      "name": "FundMe__Need_More_ETH",
      "type": "error"
    },
    {
      "inputs": [],
      "name": "FundMe__NotOwner",
      "type": "error"
    },
    {
      "stateMutability": "payable",
      "type": "fallback"
    },
    {
      "inputs": [],
      "name": "MINIMUM_USD",
      "outputs": [
        {
          "internalType": "uint256",
          "name": "",
          "type": "uint256"
        }
      ],
      "stateMutability": "view",
      "type": "function"
    },
    {
      "inputs": [],
      "name": "cheap_withdraw",
      "outputs": [],
      "stateMutability": "nonpayable",
      "type": "function"
    },
    {
      "inputs": [],
      "name": "fund",
      "outputs": [],
      "stateMutability": "payable",
      "type": "function"
    },
    {
      "inputs": [
        {
          "internalType": "address",
          "name": "funder",
          "type": "address"
        }
      ],
      "name": "getAddressToAmountFunded",
      "outputs": [
        {
          "internalType": "uint256",
          "name": "",
          "type": "uint256"
        }
      ],
      "stateMutability": "view",
      "type": "function"
    },
    {
      "inputs": [],
      "name": "getBalance",
      "outputs": [
        {
          "internalType": "uint256",
          "name": "",
          "type": "uint256"
        }
      ],
      "stateMutability": "view",
      "type": "function"
    },
    {
      "inputs": [
        {
          "internalType": "uint256",
          "name": "index",
          "type": "uint256"
        }
      ],
      "name": "getFunder",
      "outputs": [
        {
          "internalType": "address",
          "name": "",
          "type": "address"
        }
      ],
      "stateMutability": "view",
      "type": "function"
    },
    {
      "inputs": [],
      "name": "getOwner",
      "outputs": [
        {
          "internalType": "address",
          "name": "",
          "type": "address"
        }
      ],
      "stateMutability": "view",
      "type": "function"
    },
    {
      "inputs": [],
      "name": "getPriceFeed",
      "outputs": [
        {
          "internalType": "contract AggregatorV3Interface",
          "name": "",
          "type": "address"
        }
      ],
      "stateMutability": "view",
      "type": "function"
    },
    {
      "inputs": [],
      "name": "priceInUsd",
      "outputs": [
        {
          "internalType": "uint256",
          "name": "",
          "type": "uint256"
        }
      ],
      "stateMutability": "view",
      "type": "function"
    },
    {
      "inputs": [],
      "name": "withdraw",
      "outputs": [],
      "stateMutability": "nonpayable",
      "type": "function"
    },
    {
      "stateMutability": "payable",
      "type": "receive"
    }
  ],
  "transactionHash": "0xc06b51e7f93a64807d0b680d7dff0b0bfaa668961772b489f0afb7432effa029",
  "args": [
    "0x5FbDB2315678afecb367f032d93F642f64180aa3"
  ],
  "numDeployments": 1,
  "solcInputHash": "f72548a266aceaa8c01d901c1a8980b8",
  "bytecode": "0x60a06040523480156200001157600080fd5b506040516200133438038062001334833981810160405281019062000037919062000120565b3373ffffffffffffffffffffffffffffffffffffffff1660808173ffffffffffffffffffffffffffffffffffffffff1660601b8152505080600360006101000a81548173ffffffffffffffffffffffffffffffffffffffff021916908373ffffffffffffffffffffffffffffffffffffffff1602179055505062000152565b600080fd5b600073ffffffffffffffffffffffffffffffffffffffff82169050919050565b6000620000e882620000bb565b9050919050565b620000fa81620000db565b81146200010657600080fd5b50565b6000815190506200011a81620000ef565b92915050565b600060208284031215620001395762000138620000b6565b5b6000620001498482850162000109565b91505092915050565b60805160601c6111ae62000186600039600081816103c5015281816105bb0152818161068901526108d601526111ae6000f3fe6080604052600436106100955760003560e01c80636b69a592116100595780636b69a5921461016f578063893d20e81461019a5780639e87a5cd146101c5578063b60d4288146101f0578063d7b4750c146101fa576100a4565b80630343fb25146100ae57806312065fe0146100eb57806336f778f3146101165780633ccfd60b1461012d5780635310f0f414610144576100a4565b366100a4576100a2610237565b005b6100ac610237565b005b3480156100ba57600080fd5b506100d560048036038101906100d09190610b52565b610373565b6040516100e29190610b98565b60405180910390f35b3480156100f757600080fd5b506101006103bb565b60405161010d9190610b98565b60405180910390f35b34801561012257600080fd5b5061012b6103c3565b005b34801561013957600080fd5b50610142610687565b005b34801561015057600080fd5b506101596108c7565b6040516101669190610b98565b60405180910390f35b34801561017b57600080fd5b506101846108cd565b6040516101919190610b98565b60405180910390f35b3480156101a657600080fd5b506101af6108d2565b6040516101bc9190610bc2565b60405180910390f35b3480156101d157600080fd5b506101da6108fa565b6040516101e79190610c3c565b60405180910390f35b6101f8610237565b005b34801561020657600080fd5b50610221600480360381019061021c9190610c83565b610924565b60405161022e9190610bc2565b60405180910390f35b600a670de0b6b3a7640000610277600360009054906101000a900473ffffffffffffffffffffffffffffffffffffffff163461096c90919063ffffffff16565b6102819190610d0e565b10156102b9576040517f5062256100000000000000000000000000000000000000000000000000000000815260040160405180910390fd5b6001339080600181540180825580915050600190039060005260206000200160009091909190916101000a81548173ffffffffffffffffffffffffffffffffffffffff021916908373ffffffffffffffffffffffffffffffffffffffff160217905550346000803373ffffffffffffffffffffffffffffffffffffffff1673ffffffffffffffffffffffffffffffffffffffff168152602001908152602001600020600082825461036a9190610d3f565b92505081905550565b60008060008373ffffffffffffffffffffffffffffffffffffffff1673ffffffffffffffffffffffffffffffffffffffff168152602001908152602001600020549050919050565b600047905090565b7f000000000000000000000000000000000000000000000000000000000000000073ffffffffffffffffffffffffffffffffffffffff163373ffffffffffffffffffffffffffffffffffffffff1614610448576040517f579610db00000000000000000000000000000000000000000000000000000000815260040160405180910390fd5b600060018054806020026020016040519081016040528092919081815260200182805480156104cc57602002820191906000526020600020905b8160009054906101000a900473ffffffffffffffffffffffffffffffffffffffff1673ffffffffffffffffffffffffffffffffffffffff1681526020019060010190808311610482575b5050505050905060005b81518110156105565760008282815181106104f4576104f3610d95565b5b6020026020010151905060008060008373ffffffffffffffffffffffffffffffffffffffff1673ffffffffffffffffffffffffffffffffffffffff1681526020019081526020016000208190555050808061054e90610dc4565b9150506104d6565b50600067ffffffffffffffff81111561057257610571610e0d565b5b6040519080825280602002602001820160405280156105a05781602001602082028036833780820191505090505b50600190805190602001906105b6929190610a48565b5060007f000000000000000000000000000000000000000000000000000000000000000073ffffffffffffffffffffffffffffffffffffffff16476040516105fd90610e6d565b60006040518083038185875af1925050503d806000811461063a576040519150601f19603f3d011682016040523d82523d6000602084013e61063f565b606091505b5050905080610683576040517f08c379a000000000000000000000000000000000000000000000000000000000815260040161067a90610edf565b60405180910390fd5b5050565b7f000000000000000000000000000000000000000000000000000000000000000073ffffffffffffffffffffffffffffffffffffffff163373ffffffffffffffffffffffffffffffffffffffff161461070c576040517f579610db00000000000000000000000000000000000000000000000000000000815260040160405180910390fd5b60005b6001805490508110156107b75760006001828154811061073257610731610d95565b5b9060005260206000200160009054906101000a900473ffffffffffffffffffffffffffffffffffffffff16905060008060008373ffffffffffffffffffffffffffffffffffffffff1673ffffffffffffffffffffffffffffffffffffffff168152602001908152602001600020819055505080806107af90610dc4565b91505061070f565b50600067ffffffffffffffff8111156107d3576107d2610e0d565b5b6040519080825280602002602001820160405280156108015781602001602082028036833780820191505090505b5060019080519060200190610817929190610a48565b5060003373ffffffffffffffffffffffffffffffffffffffff164760405161083e90610e6d565b60006040518083038185875af1925050503d806000811461087b576040519150601f19603f3d011682016040523d82523d6000602084013e610880565b606091505b50509050806108c4576040517f08c379a00000000000000000000000000000000000000000000000000000000081526004016108bb90610edf565b60405180910390fd5b50565b60025481565b600a81565b60007f0000000000000000000000000000000000000000000000000000000000000000905090565b6000600360009054906101000a900473ffffffffffffffffffffffffffffffffffffffff16905090565b60006001828154811061093a57610939610d95565b5b9060005260206000200160009054906101000a900473ffffffffffffffffffffffffffffffffffffffff169050919050565b600080610978836109a8565b90506000670de0b6b3a764000085836109919190610eff565b61099b9190610d0e565b9050809250505092915050565b6000808273ffffffffffffffffffffffffffffffffffffffff1663feaf968c6040518163ffffffff1660e01b815260040160a06040518083038186803b1580156109f157600080fd5b505afa158015610a05573d6000803e3d6000fd5b505050506040513d601f19601f82011682018060405250810190610a299190610fe6565b5050509150506402540be40081610a409190611061565b915050919050565b828054828255906000526020600020908101928215610ac1579160200282015b82811115610ac05782518260006101000a81548173ffffffffffffffffffffffffffffffffffffffff021916908373ffffffffffffffffffffffffffffffffffffffff16021790555091602001919060010190610a68565b5b509050610ace9190610ad2565b5090565b5b80821115610aeb576000816000905550600101610ad3565b5090565b600080fd5b600073ffffffffffffffffffffffffffffffffffffffff82169050919050565b6000610b1f82610af4565b9050919050565b610b2f81610b14565b8114610b3a57600080fd5b50565b600081359050610b4c81610b26565b92915050565b600060208284031215610b6857610b67610aef565b5b6000610b7684828501610b3d565b91505092915050565b6000819050919050565b610b9281610b7f565b82525050565b6000602082019050610bad6000830184610b89565b92915050565b610bbc81610b14565b82525050565b6000602082019050610bd76000830184610bb3565b92915050565b6000819050919050565b6000610c02610bfd610bf884610af4565b610bdd565b610af4565b9050919050565b6000610c1482610be7565b9050919050565b6000610c2682610c09565b9050919050565b610c3681610c1b565b82525050565b6000602082019050610c516000830184610c2d565b92915050565b610c6081610b7f565b8114610c6b57600080fd5b50565b600081359050610c7d81610c57565b92915050565b600060208284031215610c9957610c98610aef565b5b6000610ca784828501610c6e565b91505092915050565b7f4e487b7100000000000000000000000000000000000000000000000000000000600052601260045260246000fd5b7f4e487b7100000000000000000000000000000000000000000000000000000000600052601160045260246000fd5b6000610d1982610b7f565b9150610d2483610b7f565b925082610d3457610d33610cb0565b5b828204905092915050565b6000610d4a82610b7f565b9150610d5583610b7f565b9250827fffffffffffffffffffffffffffffffffffffffffffffffffffffffffffffffff03821115610d8a57610d89610cdf565b5b828201905092915050565b7f4e487b7100000000000000000000000000000000000000000000000000000000600052603260045260246000fd5b6000610dcf82610b7f565b91507fffffffffffffffffffffffffffffffffffffffffffffffffffffffffffffffff821415610e0257610e01610cdf565b5b600182019050919050565b7f4e487b7100000000000000000000000000000000000000000000000000000000600052604160045260246000fd5b600081905092915050565b50565b6000610e57600083610e3c565b9150610e6282610e47565b600082019050919050565b6000610e7882610e4a565b9150819050919050565b600082825260208201905092915050565b7f63616c6c206661696c6564000000000000000000000000000000000000000000600082015250565b6000610ec9600b83610e82565b9150610ed482610e93565b602082019050919050565b60006020820190508181036000830152610ef881610ebc565b9050919050565b6000610f0a82610b7f565b9150610f1583610b7f565b9250817fffffffffffffffffffffffffffffffffffffffffffffffffffffffffffffffff0483118215151615610f4e57610f4d610cdf565b5b828202905092915050565b600069ffffffffffffffffffff82169050919050565b610f7881610f59565b8114610f8357600080fd5b50565b600081519050610f9581610f6f565b92915050565b6000819050919050565b610fae81610f9b565b8114610fb957600080fd5b50565b600081519050610fcb81610fa5565b92915050565b600081519050610fe081610c57565b92915050565b600080600080600060a0868803121561100257611001610aef565b5b600061101088828901610f86565b955050602061102188828901610fbc565b945050604061103288828901610fd1565b935050606061104388828901610fd1565b925050608061105488828901610f86565b9150509295509295909350565b600061106c82610f9b565b915061107783610f9b565b9250827f7fffffffffffffffffffffffffffffffffffffffffffffffffffffffffffffff04821160008413600084131616156110b6576110b5610cdf565b5b817f800000000000000000000000000000000000000000000000000000000000000005831260008412600084131616156110f3576110f2610cdf565b5b827f800000000000000000000000000000000000000000000000000000000000000005821260008413600084121616156111305761112f610cdf565b5b827f7fffffffffffffffffffffffffffffffffffffffffffffffffffffffffffffff058212600084126000841216161561116d5761116c610cdf565b5b82820290509291505056fea26469706673582212208bf8b084db8ce706ad3f6b02bbd7816c998e145457528995a875da65547e9b5664736f6c63430008080033",
  "devdoc": {
    "author": "Laks",
    "details": "This implements price feeds as our library",
    "kind": "dev",
    "methods": {
      "fund()": {
        "details": "This implements price feeds as our library"
      }
    },
    "title": "A contract for crowd funding",
    "version": 1
  },
  "userdoc": {
    "kind": "user",
    "methods": {
      "fund()": {
        "notice": "this contract is to demo a sample crowd funding contract"
      }
    },
    "notice": "this contract is to demo a sample crowd funding contract",
    "version": 1
  },
  "storageLayout": {
    "storage": [
      {
        "astId": 65,
        "contract": "contracts/FundMe.sol:FundMe",
        "label": "s_addressToAmountFunded",
        "offset": 0,
        "slot": "0",
        "type": "t_mapping(t_address,t_uint256)"
      },
      {
        "astId": 68,
        "contract": "contracts/FundMe.sol:FundMe",
        "label": "s_funders",
        "offset": 0,
        "slot": "1",
        "type": "t_array(t_address)dyn_storage"
      },
      {
        "astId": 72,
        "contract": "contracts/FundMe.sol:FundMe",
        "label": "priceInUsd",
        "offset": 0,
        "slot": "2",
        "type": "t_uint256"
      },
      {
        "astId": 75,
        "contract": "contracts/FundMe.sol:FundMe",
        "label": "s_priceFeed",
        "offset": 0,
        "slot": "3",
        "type": "t_contract(AggregatorV3Interface)45"
      }
    ],
    "types": {
      "t_address": {
        "encoding": "inplace",
        "label": "address",
        "numberOfBytes": "20"
      },
      "t_array(t_address)dyn_storage": {
        "base": "t_address",
        "encoding": "dynamic_array",
        "label": "address[]",
        "numberOfBytes": "32"
      },
      "t_contract(AggregatorV3Interface)45": {
        "encoding": "inplace",
        "label": "contract AggregatorV3Interface",
        "numberOfBytes": "20"
      },
      "t_mapping(t_address,t_uint256)": {
        "encoding": "mapping",
        "key": "t_address",
        "label": "mapping(address => uint256)",
        "numberOfBytes": "32",
        "value": "t_uint256"
      },
      "t_uint256": {
        "encoding": "inplace",
        "label": "uint256",
        "numberOfBytes": "32"
      }
    }
  }
}