{
  "address": "0x08125eCcF0cC0BD1549e5fb6BB57890348a409eB",
  "abi": [
    {
      "inputs": [
        {
          "internalType": "address",
          "name": "priceFeedAddress",
          "type": "address"
        }
      ],
      "stateMutability": "nonpayable",
      "type": "constructor"
    },
    {
      "inputs": [],
      "name": "FundMe__Need_More_ETH",
      "type": "error"
    },
    {
      "inputs": [],
      "name": "FundMe__NotOwner",
      "type": "error"
    },
    {
      "stateMutability": "payable",
      "type": "fallback"
    },
    {
      "inputs": [],
      "name": "MINIMUM_USD",
      "outputs": [
        {
          "internalType": "uint256",
          "name": "",
          "type": "uint256"
        }
      ],
      "stateMutability": "view",
      "type": "function"
    },
    {
      "inputs": [],
      "name": "cheap_withdraw",
      "outputs": [],
      "stateMutability": "nonpayable",
      "type": "function"
    },
    {
      "inputs": [],
      "name": "fund",
      "outputs": [],
      "stateMutability": "payable",
      "type": "function"
    },
    {
      "inputs": [
        {
          "internalType": "address",
          "name": "funder",
          "type": "address"
        }
      ],
      "name": "getAddressToAmountFunded",
      "outputs": [
        {
          "internalType": "uint256",
          "name": "",
          "type": "uint256"
        }
      ],
      "stateMutability": "view",
      "type": "function"
    },
    {
      "inputs": [],
      "name": "getBalance",
      "outputs": [
        {
          "internalType": "uint256",
          "name": "",
          "type": "uint256"
        }
      ],
      "stateMutability": "view",
      "type": "function"
    },
    {
      "inputs": [
        {
          "internalType": "uint256",
          "name": "index",
          "type": "uint256"
        }
      ],
      "name": "getFunder",
      "outputs": [
        {
          "internalType": "address",
          "name": "",
          "type": "address"
        }
      ],
      "stateMutability": "view",
      "type": "function"
    },
    {
      "inputs": [],
      "name": "getOwner",
      "outputs": [
        {
          "internalType": "address",
          "name": "",
          "type": "address"
        }
      ],
      "stateMutability": "view",
      "type": "function"
    },
    {
      "inputs": [],
      "name": "getPriceFeed",
      "outputs": [
        {
          "internalType": "contract AggregatorV3Interface",
          "name": "",
          "type": "address"
        }
      ],
      "stateMutability": "view",
      "type": "function"
    },
    {
      "inputs": [],
      "name": "priceInUsd",
      "outputs": [
        {
          "internalType": "uint256",
          "name": "",
          "type": "uint256"
        }
      ],
      "stateMutability": "view",
      "type": "function"
    },
    {
      "inputs": [],
      "name": "withdraw",
      "outputs": [],
      "stateMutability": "nonpayable",
      "type": "function"
    },
    {
      "stateMutability": "payable",
      "type": "receive"
    }
  ],
  "transactionHash": "0x5ca069a2cd176636aae12472f4bda25c6d1d806b9e111cbbe7af6cb4a74d9ccb",
  "args": [
    "0x8A753747A1Fa494EC906cE90E9f37563A8AF630e"
  ],
  "numDeployments": 3,
  "solcInputHash": "dcebb6d40c3e7ba83e9af53032a3b310",
  "bytecode": "0x60a06040523480156200001157600080fd5b506040516200133838038062001338833981810160405281019062000037919062000120565b3373ffffffffffffffffffffffffffffffffffffffff1660808173ffffffffffffffffffffffffffffffffffffffff1660601b8152505080600460006101000a81548173ffffffffffffffffffffffffffffffffffffffff021916908373ffffffffffffffffffffffffffffffffffffffff1602179055505062000152565b600080fd5b600073ffffffffffffffffffffffffffffffffffffffff82169050919050565b6000620000e882620000bb565b9050919050565b620000fa81620000db565b81146200010657600080fd5b50565b6000815190506200011a81620000ef565b92915050565b600060208284031215620001395762000138620000b6565b5b6000620001498482850162000109565b91505092915050565b60805160601c6111b262000186600039600081816103c7015281816105be0152818161068c01526108da01526111b26000f3fe6080604052600436106100955760003560e01c80636b69a592116100595780636b69a5921461016f578063893d20e81461019a5780639e87a5cd146101c5578063b60d4288146101f0578063d7b4750c146101fa576100a4565b80630343fb25146100ae57806312065fe0146100eb57806336f778f3146101165780633ccfd60b1461012d5780635310f0f414610144576100a4565b366100a4576100a2610237565b005b6100ac610237565b005b3480156100ba57600080fd5b506100d560048036038101906100d09190610b56565b610374565b6040516100e29190610b9c565b60405180910390f35b3480156100f757600080fd5b506101006103bd565b60405161010d9190610b9c565b60405180910390f35b34801561012257600080fd5b5061012b6103c5565b005b34801561013957600080fd5b5061014261068a565b005b34801561015057600080fd5b506101596108cb565b6040516101669190610b9c565b60405180910390f35b34801561017b57600080fd5b506101846108d1565b6040516101919190610b9c565b60405180910390f35b3480156101a657600080fd5b506101af6108d6565b6040516101bc9190610bc6565b60405180910390f35b3480156101d157600080fd5b506101da6108fe565b6040516101e79190610c40565b60405180910390f35b6101f8610237565b005b34801561020657600080fd5b50610221600480360381019061021c9190610c87565b610928565b60405161022e9190610bc6565b60405180910390f35b600a670de0b6b3a7640000610277600460009054906101000a900473ffffffffffffffffffffffffffffffffffffffff163461097090919063ffffffff16565b6102819190610d12565b10156102b9576040517f5062256100000000000000000000000000000000000000000000000000000000815260040160405180910390fd5b6002339080600181540180825580915050600190039060005260206000200160009091909190916101000a81548173ffffffffffffffffffffffffffffffffffffffff021916908373ffffffffffffffffffffffffffffffffffffffff16021790555034600160003373ffffffffffffffffffffffffffffffffffffffff1673ffffffffffffffffffffffffffffffffffffffff168152602001908152602001600020600082825461036b9190610d43565b92505081905550565b6000600160008373ffffffffffffffffffffffffffffffffffffffff1673ffffffffffffffffffffffffffffffffffffffff168152602001908152602001600020549050919050565b600047905090565b7f000000000000000000000000000000000000000000000000000000000000000073ffffffffffffffffffffffffffffffffffffffff163373ffffffffffffffffffffffffffffffffffffffff161461044a576040517f579610db00000000000000000000000000000000000000000000000000000000815260040160405180910390fd5b600060028054806020026020016040519081016040528092919081815260200182805480156104ce57602002820191906000526020600020905b8160009054906101000a900473ffffffffffffffffffffffffffffffffffffffff1673ffffffffffffffffffffffffffffffffffffffff1681526020019060010190808311610484575b5050505050905060005b81518110156105595760008282815181106104f6576104f5610d99565b5b602002602001015190506000600160008373ffffffffffffffffffffffffffffffffffffffff1673ffffffffffffffffffffffffffffffffffffffff1681526020019081526020016000208190555050808061055190610dc8565b9150506104d8565b50600067ffffffffffffffff81111561057557610574610e11565b5b6040519080825280602002602001820160405280156105a35781602001602082028036833780820191505090505b50600290805190602001906105b9929190610a4c565b5060007f000000000000000000000000000000000000000000000000000000000000000073ffffffffffffffffffffffffffffffffffffffff164760405161060090610e71565b60006040518083038185875af1925050503d806000811461063d576040519150601f19603f3d011682016040523d82523d6000602084013e610642565b606091505b5050905080610686576040517f08c379a000000000000000000000000000000000000000000000000000000000815260040161067d90610ee3565b60405180910390fd5b5050565b7f000000000000000000000000000000000000000000000000000000000000000073ffffffffffffffffffffffffffffffffffffffff163373ffffffffffffffffffffffffffffffffffffffff161461070f576040517f579610db00000000000000000000000000000000000000000000000000000000815260040160405180910390fd5b60005b6002805490508110156107bb5760006002828154811061073557610734610d99565b5b9060005260206000200160009054906101000a900473ffffffffffffffffffffffffffffffffffffffff1690506000600160008373ffffffffffffffffffffffffffffffffffffffff1673ffffffffffffffffffffffffffffffffffffffff168152602001908152602001600020819055505080806107b390610dc8565b915050610712565b50600067ffffffffffffffff8111156107d7576107d6610e11565b5b6040519080825280602002602001820160405280156108055781602001602082028036833780820191505090505b506002908051906020019061081b929190610a4c565b5060003373ffffffffffffffffffffffffffffffffffffffff164760405161084290610e71565b60006040518083038185875af1925050503d806000811461087f576040519150601f19603f3d011682016040523d82523d6000602084013e610884565b606091505b50509050806108c8576040517f08c379a00000000000000000000000000000000000000000000000000000000081526004016108bf90610ee3565b60405180910390fd5b50565b60035481565b600a81565b60007f0000000000000000000000000000000000000000000000000000000000000000905090565b6000600460009054906101000a900473ffffffffffffffffffffffffffffffffffffffff16905090565b60006002828154811061093e5761093d610d99565b5b9060005260206000200160009054906101000a900473ffffffffffffffffffffffffffffffffffffffff169050919050565b60008061097c836109ac565b90506000670de0b6b3a764000085836109959190610f03565b61099f9190610d12565b9050809250505092915050565b6000808273ffffffffffffffffffffffffffffffffffffffff1663feaf968c6040518163ffffffff1660e01b815260040160a06040518083038186803b1580156109f557600080fd5b505afa158015610a09573d6000803e3d6000fd5b505050506040513d601f19601f82011682018060405250810190610a2d9190610fea565b5050509150506402540be40081610a449190611065565b915050919050565b828054828255906000526020600020908101928215610ac5579160200282015b82811115610ac45782518260006101000a81548173ffffffffffffffffffffffffffffffffffffffff021916908373ffffffffffffffffffffffffffffffffffffffff16021790555091602001919060010190610a6c565b5b509050610ad29190610ad6565b5090565b5b80821115610aef576000816000905550600101610ad7565b5090565b600080fd5b600073ffffffffffffffffffffffffffffffffffffffff82169050919050565b6000610b2382610af8565b9050919050565b610b3381610b18565b8114610b3e57600080fd5b50565b600081359050610b5081610b2a565b92915050565b600060208284031215610b6c57610b6b610af3565b5b6000610b7a84828501610b41565b91505092915050565b6000819050919050565b610b9681610b83565b82525050565b6000602082019050610bb16000830184610b8d565b92915050565b610bc081610b18565b82525050565b6000602082019050610bdb6000830184610bb7565b92915050565b6000819050919050565b6000610c06610c01610bfc84610af8565b610be1565b610af8565b9050919050565b6000610c1882610beb565b9050919050565b6000610c2a82610c0d565b9050919050565b610c3a81610c1f565b82525050565b6000602082019050610c556000830184610c31565b92915050565b610c6481610b83565b8114610c6f57600080fd5b50565b600081359050610c8181610c5b565b92915050565b600060208284031215610c9d57610c9c610af3565b5b6000610cab84828501610c72565b91505092915050565b7f4e487b7100000000000000000000000000000000000000000000000000000000600052601260045260246000fd5b7f4e487b7100000000000000000000000000000000000000000000000000000000600052601160045260246000fd5b6000610d1d82610b83565b9150610d2883610b83565b925082610d3857610d37610cb4565b5b828204905092915050565b6000610d4e82610b83565b9150610d5983610b83565b9250827fffffffffffffffffffffffffffffffffffffffffffffffffffffffffffffffff03821115610d8e57610d8d610ce3565b5b828201905092915050565b7f4e487b7100000000000000000000000000000000000000000000000000000000600052603260045260246000fd5b6000610dd382610b83565b91507fffffffffffffffffffffffffffffffffffffffffffffffffffffffffffffffff821415610e0657610e05610ce3565b5b600182019050919050565b7f4e487b7100000000000000000000000000000000000000000000000000000000600052604160045260246000fd5b600081905092915050565b50565b6000610e5b600083610e40565b9150610e6682610e4b565b600082019050919050565b6000610e7c82610e4e565b9150819050919050565b600082825260208201905092915050565b7f63616c6c206661696c6564000000000000000000000000000000000000000000600082015250565b6000610ecd600b83610e86565b9150610ed882610e97565b602082019050919050565b60006020820190508181036000830152610efc81610ec0565b9050919050565b6000610f0e82610b83565b9150610f1983610b83565b9250817fffffffffffffffffffffffffffffffffffffffffffffffffffffffffffffffff0483118215151615610f5257610f51610ce3565b5b828202905092915050565b600069ffffffffffffffffffff82169050919050565b610f7c81610f5d565b8114610f8757600080fd5b50565b600081519050610f9981610f73565b92915050565b6000819050919050565b610fb281610f9f565b8114610fbd57600080fd5b50565b600081519050610fcf81610fa9565b92915050565b600081519050610fe481610c5b565b92915050565b600080600080600060a0868803121561100657611005610af3565b5b600061101488828901610f8a565b955050602061102588828901610fc0565b945050604061103688828901610fd5565b935050606061104788828901610fd5565b925050608061105888828901610f8a565b9150509295509295909350565b600061107082610f9f565b915061107b83610f9f565b9250827f7fffffffffffffffffffffffffffffffffffffffffffffffffffffffffffffff04821160008413600084131616156110ba576110b9610ce3565b5b817f800000000000000000000000000000000000000000000000000000000000000005831260008412600084131616156110f7576110f6610ce3565b5b827f8000000000000000000000000000000000000000000000000000000000000000058212600084136000841216161561113457611133610ce3565b5b827f7fffffffffffffffffffffffffffffffffffffffffffffffffffffffffffffff058212600084126000841216161561117157611170610ce3565b5b82820290509291505056fea2646970667358221220b5009d7554fd7359fdd13fd8b94899d39bed38637c5312987ea2202c1ab3851564736f6c63430008080033",
  "devdoc": {
    "author": "Laks",
    "details": "This implements price feeds as our library",
    "kind": "dev",
    "methods": {
      "fund()": {
        "details": "This implements price feeds as our library"
      }
    },
    "title": "A contract for crowd funding",
    "version": 1
  },
  "userdoc": {
    "kind": "user",
    "methods": {
      "fund()": {
        "notice": "this contract is to demo a sample crowd funding contract"
      }
    },
    "notice": "this contract is to demo a sample crowd funding contract",
    "version": 1
  },
  "storageLayout": {
    "storage": [
      {
        "astId": 63,
        "contract": "contracts/FundMe.sol:FundMe",
        "label": "testVar",
        "offset": 0,
        "slot": "0",
        "type": "t_uint256"
      },
      {
        "astId": 67,
        "contract": "contracts/FundMe.sol:FundMe",
        "label": "s_addressToAmountFunded",
        "offset": 0,
        "slot": "1",
        "type": "t_mapping(t_address,t_uint256)"
      },
      {
        "astId": 70,
        "contract": "contracts/FundMe.sol:FundMe",
        "label": "s_funders",
        "offset": 0,
        "slot": "2",
        "type": "t_array(t_address)dyn_storage"
      },
      {
        "astId": 74,
        "contract": "contracts/FundMe.sol:FundMe",
        "label": "priceInUsd",
        "offset": 0,
        "slot": "3",
        "type": "t_uint256"
      },
      {
        "astId": 77,
        "contract": "contracts/FundMe.sol:FundMe",
        "label": "s_priceFeed",
        "offset": 0,
        "slot": "4",
        "type": "t_contract(AggregatorV3Interface)45"
      }
    ],
    "types": {
      "t_address": {
        "encoding": "inplace",
        "label": "address",
        "numberOfBytes": "20"
      },
      "t_array(t_address)dyn_storage": {
        "base": "t_address",
        "encoding": "dynamic_array",
        "label": "address[]",
        "numberOfBytes": "32"
      },
      "t_contract(AggregatorV3Interface)45": {
        "encoding": "inplace",
        "label": "contract AggregatorV3Interface",
        "numberOfBytes": "20"
      },
      "t_mapping(t_address,t_uint256)": {
        "encoding": "mapping",
        "key": "t_address",
        "label": "mapping(address => uint256)",
        "numberOfBytes": "32",
        "value": "t_uint256"
      },
      "t_uint256": {
        "encoding": "inplace",
        "label": "uint256",
        "numberOfBytes": "32"
      }
    }
  }
}